{
  "contractName": "AuctionCreator",
  "abi": [
    {
      "inputs": [
        {
          "internalType": "uint256",
          "name": "",
          "type": "uint256"
        }
      ],
      "name": "auctions",
      "outputs": [
        {
          "internalType": "contract Auction",
          "name": "",
          "type": "address"
        }
      ],
      "stateMutability": "view",
      "type": "function"
    },
    {
      "inputs": [],
      "name": "createAuction",
      "outputs": [],
      "stateMutability": "nonpayable",
      "type": "function"
    }
  ],
  "bytecode": "0x608060405234801561001057600080fd5b50611723806100206000396000f3fe608060405234801561001057600080fd5b50600436106100365760003560e01c8063571a26a01461003b578063f58114471461006b575b600080fd5b61005560048036038101906100509190610174565b610075565b60405161006291906101d6565b60405180910390f35b6100736100b4565b005b6000818154811061008557600080fd5b906000526020600020016000915054906101000a900473ffffffffffffffffffffffffffffffffffffffff1681565b6000336040516100c390610152565b6100cd91906101bb565b604051809103906000f0801580156100e9573d6000803e3d6000fd5b5090506000819080600181540180825580915050600190039060005260206000200160009091909190916101000a81548173ffffffffffffffffffffffffffffffffffffffff021916908373ffffffffffffffffffffffffffffffffffffffff16021790555050565b6114858061026983390190565b60008135905061016e81610251565b92915050565b60006020828403121561018657600080fd5b60006101948482850161015f565b91505092915050565b6101a6816101f1565b82525050565b6101b58161022d565b82525050565b60006020820190506101d0600083018461019d565b92915050565b60006020820190506101eb60008301846101ac565b92915050565b60006101fc82610203565b9050919050565b600073ffffffffffffffffffffffffffffffffffffffff82169050919050565b6000819050919050565b60006102388261023f565b9050919050565b600061024a82610203565b9050919050565b61025a81610223565b811461026557600080fd5b5056fe60806040523480156200001157600080fd5b5060405162001485380380620014858339818101604052810190620000379190620001ec565b806000806101000a81548173ffffffffffffffffffffffffffffffffffffffff021916908373ffffffffffffffffffffffffffffffffffffffff1602179055506001600460006101000a81548160ff02191690836003811115620000c4577f4e487b7100000000000000000000000000000000000000000000000000000000600052602160045260246000fd5b0217905550436001819055506003600154620000e1919062000218565b60028190555060405180602001604052806000815250600390805190602001906200010e92919062000125565b50670de0b6b3a76400006008819055505062000361565b8280546200013390620002b3565b90600052602060002090601f016020900481019282620001575760008555620001a3565b82601f106200017257805160ff1916838001178555620001a3565b82800160010185558215620001a3579182015b82811115620001a257825182559160200191906001019062000185565b5b509050620001b29190620001b6565b5090565b5b80821115620001d1576000816000905550600101620001b7565b5090565b600081519050620001e68162000347565b92915050565b600060208284031215620001ff57600080fd5b60006200020f84828501620001d5565b91505092915050565b60006200022582620002a9565b91506200023283620002a9565b9250827fffffffffffffffffffffffffffffffffffffffffffffffffffffffffffffffff038211156200026a5762000269620002e9565b5b828201905092915050565b6000620002828262000289565b9050919050565b600073ffffffffffffffffffffffffffffffffffffffff82169050919050565b6000819050919050565b60006002820490506001821680620002cc57607f821691505b60208210811415620002e357620002e262000318565b5b50919050565b7f4e487b7100000000000000000000000000000000000000000000000000000000600052601160045260246000fd5b7f4e487b7100000000000000000000000000000000000000000000000000000000600052602260045260246000fd5b620003528162000275565b81146200035e57600080fd5b50565b61111480620003716000396000f3fe60806040526004361061009c5760003560e01c80638fa8b790116100645780638fa8b7901461018a57806391f90157146101a1578063c623674f146101cc578063ecfc7ecc146101f7578063f5b56c5614610201578063f77282ab1461022c5761009c565b8063083c6323146100a157806348cd4cb1146100cc57806362ea82db146100f75780637fb45099146101345780638da5cb5b1461015f575b600080fd5b3480156100ad57600080fd5b506100b6610243565b6040516100c39190610e7c565b60405180910390f35b3480156100d857600080fd5b506100e1610249565b6040516100ee9190610e7c565b60405180910390f35b34801561010357600080fd5b5061011e60048036038101906101199190610c75565b61024f565b60405161012b9190610e7c565b60405180910390f35b34801561014057600080fd5b50610149610267565b6040516101569190610ddf565b60405180910390f35b34801561016b57600080fd5b5061017461027a565b6040516101819190610dc4565b60405180910390f35b34801561019657600080fd5b5061019f61029e565b005b3480156101ad57600080fd5b506101b6610349565b6040516101c39190610dc4565b60405180910390f35b3480156101d857600080fd5b506101e161036f565b6040516101ee9190610dfa565b60405180910390f35b6101ff6103fd565b005b34801561020d57600080fd5b506102166107ff565b6040516102239190610e7c565b60405180910390f35b34801561023857600080fd5b50610241610805565b005b60025481565b60015481565b60076020528060005260406000206000915090505481565b600460009054906101000a900460ff1681565b60008054906101000a900473ffffffffffffffffffffffffffffffffffffffff1681565b60008054906101000a900473ffffffffffffffffffffffffffffffffffffffff1673ffffffffffffffffffffffffffffffffffffffff163373ffffffffffffffffffffffffffffffffffffffff16146102f657600080fd5b6003600460006101000a81548160ff02191690836003811115610342577f4e487b7100000000000000000000000000000000000000000000000000000000600052602160045260246000fd5b0217905550565b600660009054906101000a900473ffffffffffffffffffffffffffffffffffffffff1681565b6003805461037c90610fe3565b80601f01602080910402602001604051908101604052809291908181526020018280546103a890610fe3565b80156103f55780601f106103ca576101008083540402835291602001916103f5565b820191906000526020600020905b8154815290600101906020018083116103d857829003601f168201915b505050505081565b60008054906101000a900473ffffffffffffffffffffffffffffffffffffffff1673ffffffffffffffffffffffffffffffffffffffff163373ffffffffffffffffffffffffffffffffffffffff16141561045657600080fd5b60015443101561046557600080fd5b60025443111561047457600080fd5b600160038111156104ae577f4e487b7100000000000000000000000000000000000000000000000000000000600052602160045260246000fd5b600460009054906101000a900460ff1660038111156104f6577f4e487b7100000000000000000000000000000000000000000000000000000000600052602160045260246000fd5b14610536576040517f08c379a000000000000000000000000000000000000000000000000000000000815260040161052d90610e3c565b60405180910390fd5b606434101561057a576040517f08c379a000000000000000000000000000000000000000000000000000000000815260040161057190610e5c565b60405180910390fd5b600034600760003373ffffffffffffffffffffffffffffffffffffffff1673ffffffffffffffffffffffffffffffffffffffff168152602001908152602001600020546105c79190610eb3565b9050600554811161060d576040517f08c379a000000000000000000000000000000000000000000000000000000000815260040161060490610e1c565b60405180910390fd5b80600760003373ffffffffffffffffffffffffffffffffffffffff1673ffffffffffffffffffffffffffffffffffffffff1681526020019081526020016000208190555060076000600660009054906101000a900473ffffffffffffffffffffffffffffffffffffffff1673ffffffffffffffffffffffffffffffffffffffff1673ffffffffffffffffffffffffffffffffffffffff16815260200190815260200160002054811161073c57610731600854826106ca9190610eb3565b60076000600660009054906101000a900473ffffffffffffffffffffffffffffffffffffffff1673ffffffffffffffffffffffffffffffffffffffff1673ffffffffffffffffffffffffffffffffffffffff16815260200190815260200160002054610c45565b6005819055506107fc565b6107b48160085460076000600660009054906101000a900473ffffffffffffffffffffffffffffffffffffffff1673ffffffffffffffffffffffffffffffffffffffff1673ffffffffffffffffffffffffffffffffffffffff168152602001908152602001600020546107af9190610eb3565b610c45565b60058190555033600660006101000a81548173ffffffffffffffffffffffffffffffffffffffff021916908373ffffffffffffffffffffffffffffffffffffffff1602179055505b50565b60055481565b60038081111561083e577f4e487b7100000000000000000000000000000000000000000000000000000000600052602160045260246000fd5b600460009054906101000a900460ff166003811115610886577f4e487b7100000000000000000000000000000000000000000000000000000000600052602160045260246000fd5b1480610893575060025443115b61089c57600080fd5b60008054906101000a900473ffffffffffffffffffffffffffffffffffffffff1673ffffffffffffffffffffffffffffffffffffffff163373ffffffffffffffffffffffffffffffffffffffff16148061093557506000600760003373ffffffffffffffffffffffffffffffffffffffff1673ffffffffffffffffffffffffffffffffffffffff16815260200190815260200160002054115b61093e57600080fd5b60008060038081111561097a577f4e487b7100000000000000000000000000000000000000000000000000000000600052602160045260246000fd5b600460009054906101000a900460ff1660038111156109c2577f4e487b7100000000000000000000000000000000000000000000000000000000600052602160045260246000fd5b1415610a1257339150600760003373ffffffffffffffffffffffffffffffffffffffff1673ffffffffffffffffffffffffffffffffffffffff168152602001908152602001600020549050610bb5565b60008054906101000a900473ffffffffffffffffffffffffffffffffffffffff1673ffffffffffffffffffffffffffffffffffffffff163373ffffffffffffffffffffffffffffffffffffffff161415610a7c5760008054906101000a9050506005549050610bb4565b600660009054906101000a900473ffffffffffffffffffffffffffffffffffffffff1673ffffffffffffffffffffffffffffffffffffffff163373ffffffffffffffffffffffffffffffffffffffff161415610b6d57600660009054906101000a900473ffffffffffffffffffffffffffffffffffffffff16915060055460076000600660009054906101000a900473ffffffffffffffffffffffffffffffffffffffff1673ffffffffffffffffffffffffffffffffffffffff1673ffffffffffffffffffffffffffffffffffffffff16815260200190815260200160002054610b669190610f09565b9050610bb3565b339150600760003373ffffffffffffffffffffffffffffffffffffffff1673ffffffffffffffffffffffffffffffffffffffff1681526020019081526020016000205490505b5b5b6000600760008473ffffffffffffffffffffffffffffffffffffffff1673ffffffffffffffffffffffffffffffffffffffff168152602001908152602001600020819055508173ffffffffffffffffffffffffffffffffffffffff166108fc829081150290604051600060405180830381858888f19350505050158015610c40573d6000803e3d6000fd5b505050565b6000818311610c5657829050610c5a565b8190505b92915050565b600081359050610c6f816110c7565b92915050565b600060208284031215610c8757600080fd5b6000610c9584828501610c60565b91505092915050565b610ca781610f4f565b82525050565b610cb681610f9e565b82525050565b6000610cc782610e97565b610cd18185610ea2565b9350610ce1818560208601610fb0565b610cea816110a2565b840191505092915050565b6000610d02600e83610ea2565b91507f426964206e6f7420656e6f7567680000000000000000000000000000000000006000830152602082019050919050565b6000610d42601383610ea2565b91507f41756374696f6e206e6f742072756e6e696e67000000000000000000000000006000830152602082019050919050565b6000610d82601383610ea2565b91507f56616c7565206973206e6f7420656e6f756768000000000000000000000000006000830152602082019050919050565b610dbe81610f94565b82525050565b6000602082019050610dd96000830184610c9e565b92915050565b6000602082019050610df46000830184610cad565b92915050565b60006020820190508181036000830152610e148184610cbc565b905092915050565b60006020820190508181036000830152610e3581610cf5565b9050919050565b60006020820190508181036000830152610e5581610d35565b9050919050565b60006020820190508181036000830152610e7581610d75565b9050919050565b6000602082019050610e916000830184610db5565b92915050565b600081519050919050565b600082825260208201905092915050565b6000610ebe82610f94565b9150610ec983610f94565b9250827fffffffffffffffffffffffffffffffffffffffffffffffffffffffffffffffff03821115610efe57610efd611015565b5b828201905092915050565b6000610f1482610f94565b9150610f1f83610f94565b925082821015610f3257610f31611015565b5b828203905092915050565b6000610f4882610f74565b9050919050565b6000610f5a82610f74565b9050919050565b6000819050610f6f826110b3565b919050565b600073ffffffffffffffffffffffffffffffffffffffff82169050919050565b6000819050919050565b6000610fa982610f61565b9050919050565b60005b83811015610fce578082015181840152602081019050610fb3565b83811115610fdd576000848401525b50505050565b60006002820490506001821680610ffb57607f821691505b6020821081141561100f5761100e611073565b5b50919050565b7f4e487b7100000000000000000000000000000000000000000000000000000000600052601160045260246000fd5b7f4e487b7100000000000000000000000000000000000000000000000000000000600052602160045260246000fd5b7f4e487b7100000000000000000000000000000000000000000000000000000000600052602260045260246000fd5b6000601f19601f8301169050919050565b600481106110c4576110c3611044565b5b50565b6110d081610f3d565b81146110db57600080fd5b5056fea26469706673582212209f75055ac4c17d7c18fb4ff91a0e27c01c048c6757f0fa29e463c5cd9b4d246c64736f6c63430008000033a2646970667358221220c8216428c2b0522fc83782bd571fa53006516e1987aaa359c70cb20677e1c77764736f6c63430008000033",
  "immutableReferences": {},
  "source": "// SPDX-License-Identifier: GPL-3.0\n\npragma solidity >=0.7.0 <0.9.0;\n\ncontract AuctionCreator {\n    Auction[] public auctions;\n\n    function createAuction() public {\n        Auction newAuction = new Auction(msg.sender);\n        auctions.push(newAuction);\n    }\n}\n\ncontract Auction {\n    address payable public owner;\n    uint256 public startBlock;\n    uint256 public endBlock;\n    string public ipfsHash;\n\n    enum State {\n        Started,\n        Running,\n        Ended,\n        Canceled\n    }\n\n    State public auctionState;\n\n    uint256 public highestBindingBid;\n    address payable public highestBidder;\n\n    mapping(address => uint256) public bids;\n    uint256 bidIncrement;\n\n    constructor(address EOA) {\n        owner = payable(EOA);\n        auctionState = State.Running;\n        startBlock = block.number;\n        endBlock = startBlock + 3;\n        ipfsHash = \"\";\n        bidIncrement = 1000000000000000000;\n    }\n\n    modifier onlyOwner() {\n        require(msg.sender == owner);\n        _;\n    }\n\n    modifier notOwner() {\n        require(msg.sender != owner);\n        _;\n    }\n\n    modifier afterStart() {\n        require(block.number >= startBlock);\n        _;\n    }\n\n    modifier beforeEnd() {\n        require(block.number <= endBlock);\n        _;\n    }\n\n    function min(uint256 a, uint256 b) internal pure returns (uint256) {\n        if (a <= b) {\n            return a;\n        } else {\n            return b;\n        }\n    }\n\n    function cancelAuction() public onlyOwner {\n        auctionState = State.Canceled;\n    }\n\n    function finalizeAuction() public {\n        require(auctionState == State.Canceled || block.number > endBlock);\n        require(msg.sender == owner || bids[msg.sender] > 0);\n\n        address payable recipient;\n        uint256 value;\n\n        if (auctionState == State.Canceled) {\n            recipient = payable(msg.sender);\n            value = bids[msg.sender];\n        } else {\n            //ended\n            if (msg.sender == owner) {\n                recipient == owner;\n                value = highestBindingBid;\n            } else {\n                if (msg.sender == highestBidder) {\n                    //bidder owner\n                    recipient = highestBidder;\n                    value = bids[highestBidder] - highestBindingBid;\n                } else {\n                    // other bidders\n                    recipient = payable(msg.sender);\n                    value = bids[msg.sender];\n                }\n            }\n        }\n\n        bids[recipient] = 0; //reset bids of recipient so next time he calls he won't be a bidder anymore\n\n        recipient.transfer(value);\n    }\n\n    function placeBid() public payable notOwner afterStart beforeEnd {\n        require(auctionState == State.Running, \"Auction not running\");\n        require(msg.value >= 100, \"Value is not enough\");\n\n        uint256 currentBid = bids[msg.sender] + msg.value;\n        require(currentBid > highestBindingBid, \"Bid not enough\");\n\n        bids[msg.sender] = currentBid;\n\n        if (currentBid <= bids[highestBidder]) {\n            // your own bid\n            highestBindingBid = min(\n                currentBid + bidIncrement,\n                bids[highestBidder]\n            );\n        } else {\n            highestBindingBid = min(\n                currentBid,\n                bids[highestBidder] + bidIncrement\n            );\n            highestBidder = payable(msg.sender);\n        }\n    }\n}\n",
  "sourcePath": "/home/arthur/Desktop/Arthur/Codigos/blockchain/bicho/contracts/Auction.sol",
  "compiler": {
    "name": "solc",
    "version": "0.8.0+commit.c7dfd78e.Emscripten.clang"
  },
  "schemaVersion": "3.4.3",
  "updatedAt": "2021-11-08T11:50:03.480Z",
  "devdoc": {
    "kind": "dev",
    "methods": {},
    "version": 1
  },
  "userdoc": {
    "kind": "user",
    "methods": {},
    "version": 1
  }
}