{
  "contractName": "BichoGame",
  "abi": [
    {
      "inputs": [],
      "stateMutability": "nonpayable",
      "type": "constructor"
    },
    {
      "inputs": [],
      "name": "manager",
      "outputs": [
        {
          "internalType": "address",
          "name": "",
          "type": "address"
        }
      ],
      "stateMutability": "view",
      "type": "function",
      "constant": true
    },
    {
      "inputs": [
        {
          "internalType": "address",
          "name": "",
          "type": "address"
        }
      ],
      "name": "playerParticipaing",
      "outputs": [
        {
          "internalType": "bool",
          "name": "",
          "type": "bool"
        }
      ],
      "stateMutability": "view",
      "type": "function",
      "constant": true
    },
    {
      "inputs": [
        {
          "internalType": "uint256",
          "name": "",
          "type": "uint256"
        }
      ],
      "name": "players",
      "outputs": [
        {
          "internalType": "address payable",
          "name": "",
          "type": "address"
        }
      ],
      "stateMutability": "view",
      "type": "function",
      "constant": true
    },
    {
      "stateMutability": "payable",
      "type": "receive",
      "payable": true
    },
    {
      "inputs": [],
      "name": "getPlayers",
      "outputs": [
        {
          "internalType": "address payable[]",
          "name": "",
          "type": "address[]"
        }
      ],
      "stateMutability": "view",
      "type": "function",
      "constant": true
    },
    {
      "inputs": [
        {
          "internalType": "address",
          "name": "addr",
          "type": "address"
        }
      ],
      "name": "getAddrBalance",
      "outputs": [
        {
          "internalType": "uint256",
          "name": "",
          "type": "uint256"
        }
      ],
      "stateMutability": "view",
      "type": "function",
      "constant": true
    },
    {
      "inputs": [],
      "name": "getContractBalance",
      "outputs": [
        {
          "internalType": "uint256",
          "name": "",
          "type": "uint256"
        }
      ],
      "stateMutability": "view",
      "type": "function",
      "constant": true
    },
    {
      "inputs": [],
      "name": "random",
      "outputs": [
        {
          "internalType": "uint256",
          "name": "",
          "type": "uint256"
        }
      ],
      "stateMutability": "view",
      "type": "function",
      "constant": true
    },
    {
      "inputs": [],
      "name": "cleanPlayerParticipaing",
      "outputs": [],
      "stateMutability": "nonpayable",
      "type": "function"
    },
    {
      "inputs": [],
      "name": "pickWinner",
      "outputs": [],
      "stateMutability": "nonpayable",
      "type": "function"
    }
  ],
  "bytecode": "0x608060405234801561001057600080fd5b50336000806101000a81548173ffffffffffffffffffffffffffffffffffffffff021916908373ffffffffffffffffffffffffffffffffffffffff160217905550610bb0806100606000396000f3fe60806040526004361061008a5760003560e01c806387be02b11161005957806387be02b1146101e95780638b5b9ccc14610226578063cc02c05814610251578063e46c4e5f14610268578063f71d96cb146102a55761014c565b8063481c6a75146101515780635d495aea1461017c5780635ec01e4d146101935780636f9fb98a146101be5761014c565b3661014c576001339080600181540180825580915050600190039060005260206000200160009091909190916101000a81548173ffffffffffffffffffffffffffffffffffffffff021916908373ffffffffffffffffffffffffffffffffffffffff1602179055506001600360003373ffffffffffffffffffffffffffffffffffffffff1673ffffffffffffffffffffffffffffffffffffffff16815260200190815260200160002060006101000a81548160ff021916908315150217905550005b600080fd5b34801561015d57600080fd5b506101666102e2565b6040516101739190610970565b60405180910390f35b34801561018857600080fd5b50610191610306565b005b34801561019f57600080fd5b506101a861053e565b6040516101b59190610a23565b60405180910390f35b3480156101ca57600080fd5b506101d3610578565b6040516101e09190610a23565b60405180910390f35b3480156101f557600080fd5b50610210600480360381019061020b9190610789565b610580565b60405161021d91906109c8565b60405180910390f35b34801561023257600080fd5b5061023b6105a0565b60405161024891906109a6565b60405180910390f35b34801561025d57600080fd5b5061026661062e565b005b34801561027457600080fd5b5061028f600480360381019061028a9190610789565b610630565b60405161029c9190610a23565b60405180910390f35b3480156102b157600080fd5b506102cc60048036038101906102c791906107b2565b610679565b6040516102d9919061098b565b60405180910390f35b60008054906101000a900473ffffffffffffffffffffffffffffffffffffffff1681565b60008054906101000a900473ffffffffffffffffffffffffffffffffffffffff1673ffffffffffffffffffffffffffffffffffffffff163373ffffffffffffffffffffffffffffffffffffffff1614610394576040517f08c379a000000000000000000000000000000000000000000000000000000000815260040161038b906109e3565b60405180910390fd5b6001808054905010156103dc576040517f08c379a00000000000000000000000000000000000000000000000000000000081526004016103d390610a03565b60405180910390fd5b60006103e661053e565b9050600080600180549050836103fc9190610aec565b905060018181548110610438577f4e487b7100000000000000000000000000000000000000000000000000000000600052603260045260246000fd5b9060005260206000200160009054906101000a900473ffffffffffffffffffffffffffffffffffffffff1691508173ffffffffffffffffffffffffffffffffffffffff166108fc610487610578565b9081150290604051600060405180830381858888f193505050501580156104b2573d6000803e3d6000fd5b50600067ffffffffffffffff8111156104f4577f4e487b7100000000000000000000000000000000000000000000000000000000600052604160045260246000fd5b6040519080825280602002602001820160405280156105225781602001602082028036833780820191505090505b50600190805190602001906105389291906106b8565b50505050565b6000444260018054905060405160200161055a93929190610933565b6040516020818303038152906040528051906020012060001c905090565b600047905090565b60036020528060005260406000206000915054906101000a900460ff1681565b6060600180548060200260200160405190810160405280929190818152602001828054801561062457602002820191906000526020600020905b8160009054906101000a900473ffffffffffffffffffffffffffffffffffffffff1673ffffffffffffffffffffffffffffffffffffffff16815260200190600101908083116105da575b5050505050905090565b565b6000600260008373ffffffffffffffffffffffffffffffffffffffff1673ffffffffffffffffffffffffffffffffffffffff168152602001908152602001600020549050919050565b6001818154811061068957600080fd5b906000526020600020016000915054906101000a900473ffffffffffffffffffffffffffffffffffffffff1681565b828054828255906000526020600020908101928215610731579160200282015b828111156107305782518260006101000a81548173ffffffffffffffffffffffffffffffffffffffff021916908373ffffffffffffffffffffffffffffffffffffffff160217905550916020019190600101906106d8565b5b50905061073e9190610742565b5090565b5b8082111561075b576000816000905550600101610743565b5090565b60008135905061076e81610b4c565b92915050565b60008135905061078381610b63565b92915050565b60006020828403121561079b57600080fd5b60006107a98482850161075f565b91505092915050565b6000602082840312156107c457600080fd5b60006107d284828501610774565b91505092915050565b60006107e783836107f3565b60208301905092915050565b6107fc81610a9a565b82525050565b61080b81610a9a565b82525050565b61081a81610a88565b82525050565b600061082b82610a4e565b6108358185610a66565b935061084083610a3e565b8060005b8381101561087157815161085888826107db565b975061086383610a59565b925050600181019050610844565b5085935050505092915050565b61088781610aac565b82525050565b600061089a600483610a77565b91507f47544f21000000000000000000000000000000000000000000000000000000006000830152602082019050919050565b60006108da601e83610a77565b91507f4e6f7420656e6f75676820706c6179657220706172746963697061696e6700006000830152602082019050919050565b61091681610ad8565b82525050565b61092d61092882610ad8565b610ae2565b82525050565b600061093f828661091c565b60208201915061094f828561091c565b60208201915061095f828461091c565b602082019150819050949350505050565b60006020820190506109856000830184610811565b92915050565b60006020820190506109a06000830184610802565b92915050565b600060208201905081810360008301526109c08184610820565b905092915050565b60006020820190506109dd600083018461087e565b92915050565b600060208201905081810360008301526109fc8161088d565b9050919050565b60006020820190508181036000830152610a1c816108cd565b9050919050565b6000602082019050610a38600083018461090d565b92915050565b6000819050602082019050919050565b600081519050919050565b6000602082019050919050565b600082825260208201905092915050565b600082825260208201905092915050565b6000610a9382610ab8565b9050919050565b6000610aa582610ab8565b9050919050565b60008115159050919050565b600073ffffffffffffffffffffffffffffffffffffffff82169050919050565b6000819050919050565b6000819050919050565b6000610af782610ad8565b9150610b0283610ad8565b925082610b1257610b11610b1d565b5b828206905092915050565b7f4e487b7100000000000000000000000000000000000000000000000000000000600052601260045260246000fd5b610b5581610a88565b8114610b6057600080fd5b50565b610b6c81610ad8565b8114610b7757600080fd5b5056fea2646970667358221220c324b9a0c02da248eda403d5f893303789617fe74511801f6293d791b3d0e87a64736f6c63430008000033",
  "immutableReferences": {},
  "source": "// SPDX-License-Identifier: MIT\npragma solidity >=0.7.1 <0.9.0;\n\ncontract BichoGame {\n    address public manager;\n    address payable[] public players;\n    mapping(address => uint256) balances;\n    mapping(address => bool) public playerParticipaing;\n\n    constructor() {\n        manager = msg.sender;\n    }\n\n    receive() external payable {\n        // require(msg.value > 100000 wei, \"not enough value\");\n        // require(!playerParticipaing[msg.sender], \"player already playing\");\n        players.push(payable(msg.sender));\n        playerParticipaing[msg.sender] = true;\n    }\n\n    function getPlayers() public view returns (address payable[] memory) {\n        return players;\n    }\n\n    function getAddrBalance(address addr) public view returns (uint256) {\n        return balances[addr];\n    }\n\n    function getContractBalance() public view returns (uint256) {\n        return address(this).balance;\n    }\n\n    function random() public view returns (uint256) {\n        return\n            uint256(\n                keccak256(\n                    abi.encodePacked(\n                        block.difficulty,\n                        block.timestamp,\n                        players.length\n                    )\n                )\n            );\n    }\n\n    function cleanPlayerParticipaing() public {}\n\n    function pickWinner() public {\n        require(msg.sender == manager, \"GTO!\");\n        require(players.length >= 1, \"Not enough player participaing\");\n\n        uint256 rand = random();\n        address payable winner;\n        uint256 index = rand % players.length;\n        // return index;\n        winner = players[index];\n        winner.transfer(getContractBalance());\n        players = new address payable[](0); //reset lottery\n    }\n}\n",
  "sourcePath": "/home/arthur/Desktop/Arthur/Codigos/blockchain/bicho/contracts/BichoGame.sol",
  "compiler": {
    "name": "solc",
    "version": "0.8.0+commit.c7dfd78e.Emscripten.clang"
  },
  "schemaVersion": "3.4.3",
  "updatedAt": "2021-11-03T23:55:20.790Z",
  "networkType": "ethereum",
  "devdoc": {
    "kind": "dev",
    "methods": {},
    "version": 1
  },
  "userdoc": {
    "kind": "user",
    "methods": {},
    "version": 1
  }
}