{
  "contractName": "BichoGameV2",
  "abi": [
    {
      "inputs": [
        {
          "internalType": "uint256",
          "name": "",
          "type": "uint256"
        }
      ],
      "name": "animals",
      "outputs": [
        {
          "internalType": "uint256",
          "name": "",
          "type": "uint256"
        }
      ],
      "stateMutability": "view",
      "type": "function",
      "constant": true
    },
    {
      "inputs": [
        {
          "internalType": "uint256",
          "name": "",
          "type": "uint256"
        }
      ],
      "name": "players",
      "outputs": [
        {
          "internalType": "address payable",
          "name": "addr",
          "type": "address"
        },
        {
          "internalType": "uint256",
          "name": "animal",
          "type": "uint256"
        },
        {
          "internalType": "bool",
          "name": "playing",
          "type": "bool"
        }
      ],
      "stateMutability": "view",
      "type": "function",
      "constant": true
    },
    {
      "inputs": [
        {
          "internalType": "address",
          "name": "",
          "type": "address"
        }
      ],
      "name": "whosPlaying",
      "outputs": [
        {
          "internalType": "address payable",
          "name": "addr",
          "type": "address"
        },
        {
          "internalType": "uint256",
          "name": "animal",
          "type": "uint256"
        },
        {
          "internalType": "bool",
          "name": "playing",
          "type": "bool"
        }
      ],
      "stateMutability": "view",
      "type": "function",
      "constant": true
    },
    {
      "inputs": [
        {
          "internalType": "uint256",
          "name": "animal",
          "type": "uint256"
        }
      ],
      "name": "participate",
      "outputs": [],
      "stateMutability": "payable",
      "type": "function",
      "payable": true
    },
    {
      "inputs": [],
      "name": "getPlayers",
      "outputs": [
        {
          "components": [
            {
              "internalType": "address payable",
              "name": "addr",
              "type": "address"
            },
            {
              "internalType": "uint256",
              "name": "animal",
              "type": "uint256"
            },
            {
              "internalType": "bool",
              "name": "playing",
              "type": "bool"
            }
          ],
          "internalType": "struct BichoGameV2.Player[]",
          "name": "",
          "type": "tuple[]"
        }
      ],
      "stateMutability": "view",
      "type": "function",
      "constant": true
    },
    {
      "inputs": [],
      "name": "getContractBalance",
      "outputs": [
        {
          "internalType": "uint256",
          "name": "",
          "type": "uint256"
        }
      ],
      "stateMutability": "view",
      "type": "function",
      "constant": true
    },
    {
      "inputs": [],
      "name": "random",
      "outputs": [
        {
          "internalType": "uint256",
          "name": "",
          "type": "uint256"
        }
      ],
      "stateMutability": "view",
      "type": "function",
      "constant": true
    },
    {
      "inputs": [],
      "name": "pickWinner",
      "outputs": [],
      "stateMutability": "nonpayable",
      "type": "function"
    }
  ],
  "bytecode": "0x60806040526040518060c00160405280600060ff168152602001600160ff168152602001600260ff168152602001600360ff168152602001600460ff168152602001600560ff16815250600090600661005992919061006c565b5034801561006657600080fd5b506100db565b8280548282559060005260206000209081019282156100ad579160200282015b828111156100ac578251829060ff1690559160200191906001019061008c565b5b5090506100ba91906100be565b5090565b5b808211156100d75760008160009055506001016100bf565b5090565b610c57806100ea6000396000f3fe60806040526004361061007b5760003560e01c80638b5b9ccc1161004e5780638b5b9ccc14610109578063998dd3ca14610134578063cd2602e114610171578063f71d96cb146101b05761007b565b80635d495aea146100805780635ec01e4d146100975780636f9fb98a146100c2578063845c9306146100ed575b600080fd5b34801561008c57600080fd5b506100956101ef565b005b3480156100a357600080fd5b506100ac610396565b6040516100b99190610aca565b60405180910390f35b3480156100ce57600080fd5b506100d76103d0565b6040516100e49190610aca565b60405180910390f35b61010760048036038101906101029190610822565b6103d8565b005b34801561011557600080fd5b5061011e61055c565b60405161012b9190610a68565b60405180910390f35b34801561014057600080fd5b5061015b60048036038101906101569190610822565b610636565b6040516101689190610aca565b60405180910390f35b34801561017d57600080fd5b50610198600480360381019061019391906107f9565b61065a565b6040516101a793929190610a31565b60405180910390f35b3480156101bc57600080fd5b506101d760048036038101906101d29190610822565b6106b1565b6040516101e693929190610a31565b60405180910390f35b60016002805490501015610238576040517f08c379a000000000000000000000000000000000000000000000000000000000815260040161022f90610a8a565b60405180910390fd5b6000610242610396565b905061024c610718565b60006002805490508361025f9190610b93565b90506002818154811061029b577f4e487b7100000000000000000000000000000000000000000000000000000000600052603260045260246000fd5b90600052602060002090600302016040518060600160405290816000820160009054906101000a900473ffffffffffffffffffffffffffffffffffffffff1673ffffffffffffffffffffffffffffffffffffffff1673ffffffffffffffffffffffffffffffffffffffff168152602001600182015481526020016002820160009054906101000a900460ff1615151515815250509150816000015173ffffffffffffffffffffffffffffffffffffffff166108fc6103576103d0565b9081150290604051600060405180830381858888f19350505050158015610382573d6000803e3d6000fd5b50600260006103919190610751565b505050565b600044426002805490506040516020016103b2939291906109f4565b6040516020818303038152906040528051906020012060001c905090565b600047905090565b6005811061041b576040517f08c379a000000000000000000000000000000000000000000000000000000000815260040161041290610aaa565b60405180910390fd5b6000811161045e576040517f08c379a000000000000000000000000000000000000000000000000000000000815260040161045590610aaa565b60405180910390fd5b610466610718565b33816000019073ffffffffffffffffffffffffffffffffffffffff16908173ffffffffffffffffffffffffffffffffffffffff1681525050818160200181815250506001816040019015159081151581525050600281908060018154018082558091505060019003906000526020600020906003020160009091909190915060008201518160000160006101000a81548173ffffffffffffffffffffffffffffffffffffffff021916908373ffffffffffffffffffffffffffffffffffffffff1602179055506020820151816001015560408201518160020160006101000a81548160ff02191690831515021790555050505050565b60606002805480602002602001604051908101604052809291908181526020016000905b8282101561062d57838290600052602060002090600302016040518060600160405290816000820160009054906101000a900473ffffffffffffffffffffffffffffffffffffffff1673ffffffffffffffffffffffffffffffffffffffff1673ffffffffffffffffffffffffffffffffffffffff168152602001600182015481526020016002820160009054906101000a900460ff16151515158152505081526020019060010190610580565b50505050905090565b6000818154811061064657600080fd5b906000526020600020016000915090505481565b60016020528060005260406000206000915090508060000160009054906101000a900473ffffffffffffffffffffffffffffffffffffffff16908060010154908060020160009054906101000a900460ff16905083565b600281815481106106c157600080fd5b90600052602060002090600302016000915090508060000160009054906101000a900473ffffffffffffffffffffffffffffffffffffffff16908060010154908060020160009054906101000a900460ff16905083565b6040518060600160405280600073ffffffffffffffffffffffffffffffffffffffff168152602001600081526020016000151581525090565b50805460008255600302906000526020600020908101906107729190610775565b50565b5b808211156107cb57600080820160006101000a81549073ffffffffffffffffffffffffffffffffffffffff021916905560018201600090556002820160006101000a81549060ff021916905550600301610776565b5090565b6000813590506107de81610bf3565b92915050565b6000813590506107f381610c0a565b92915050565b60006020828403121561080b57600080fd5b6000610819848285016107cf565b91505092915050565b60006020828403121561083457600080fd5b6000610842848285016107e4565b91505092915050565b6000610857838361097d565b60608301905092915050565b61086c81610b41565b82525050565b61087b81610b41565b82525050565b600061088c82610af5565b6108968185610b0d565b93506108a183610ae5565b8060005b838110156108d25781516108b9888261084b565b97506108c483610b00565b9250506001810190506108a5565b5085935050505092915050565b6108e881610b53565b82525050565b6108f781610b53565b82525050565b600061090a601e83610b1e565b91507f4e6f7420656e6f75676820706c6179657220706172746963697061696e6700006000830152602082019050919050565b600061094a601783610b1e565b91507f416e696d616c206e756d626572206e6f742076616c69640000000000000000006000830152602082019050919050565b6060820160008201516109936000850182610863565b5060208201516109a660208501826109bf565b5060408201516109b960408501826108df565b50505050565b6109c881610b7f565b82525050565b6109d781610b7f565b82525050565b6109ee6109e982610b7f565b610b89565b82525050565b6000610a0082866109dd565b602082019150610a1082856109dd565b602082019150610a2082846109dd565b602082019150819050949350505050565b6000606082019050610a466000830186610872565b610a5360208301856109ce565b610a6060408301846108ee565b949350505050565b60006020820190508181036000830152610a828184610881565b905092915050565b60006020820190508181036000830152610aa3816108fd565b9050919050565b60006020820190508181036000830152610ac38161093d565b9050919050565b6000602082019050610adf60008301846109ce565b92915050565b6000819050602082019050919050565b600081519050919050565b6000602082019050919050565b600082825260208201905092915050565b600082825260208201905092915050565b6000610b3a82610b5f565b9050919050565b6000610b4c82610b5f565b9050919050565b60008115159050919050565b600073ffffffffffffffffffffffffffffffffffffffff82169050919050565b6000819050919050565b6000819050919050565b6000610b9e82610b7f565b9150610ba983610b7f565b925082610bb957610bb8610bc4565b5b828206905092915050565b7f4e487b7100000000000000000000000000000000000000000000000000000000600052601260045260246000fd5b610bfc81610b2f565b8114610c0757600080fd5b50565b610c1381610b7f565b8114610c1e57600080fd5b5056fea26469706673582212200220ba5f9192043f01da8b586d2305edf1ba8d5c5d11ea13637b5b18e50ec8c464736f6c63430008000033",
  "immutableReferences": {},
  "source": "// SPDX-License-Identifier: MIT\npragma solidity >=0.7.1 <0.9.0;\n\ncontract BichoGameV2 {\n    struct Player {\n        address payable addr;\n        uint256 animal;\n        bool playing;\n    }\n\n    uint256[] public animals = [0, 1, 2, 3, 4, 5];\n    mapping(address => Player) public whosPlaying;\n    Player[] public players;\n\n    function participate(uint256 animal) public payable {\n        require(animal < 5, \"Animal number not valid\");\n        require(animal > 0, \"Animal number not valid\");\n        Player memory newPlayer;\n        newPlayer.addr = payable(msg.sender);\n        newPlayer.animal = animal;\n        newPlayer.playing = true;\n\n        // require(whosPlaying[msg.sender].playing != true, 'Already playing!');\n        players.push(newPlayer);\n    }\n\n    function getPlayers() public view returns (Player[] memory) {\n        return players;\n    }\n\n    function getContractBalance() public view returns (uint256) {\n        return address(this).balance;\n    }\n\n    function random() public view returns (uint256) {\n        return\n            uint256(\n                keccak256(\n                    abi.encodePacked(\n                        block.difficulty,\n                        block.timestamp,\n                        players.length\n                    )\n                )\n            );\n    }\n\n    function pickWinner() public {\n        require(players.length >= 1, \"Not enough player participaing\");\n\n        uint256 rand = random();\n        Player memory winner;\n        uint256 index = rand % players.length;\n        winner = players[index];\n        winner.addr.transfer(getContractBalance());\n\n        delete players;\n    }\n}\n",
  "sourcePath": "/home/arthur/Desktop/Arthur/Codigos/blockchain/bicho/contracts/BichoGameV2.sol",
  "compiler": {
    "name": "solc",
    "version": "0.8.0+commit.c7dfd78e.Emscripten.clang"
  },
  "schemaVersion": "3.4.3",
  "updatedAt": "2021-11-03T23:55:21.598Z",
  "networkType": "ethereum",
  "devdoc": {
    "kind": "dev",
    "methods": {},
    "version": 1
  },
  "userdoc": {
    "kind": "user",
    "methods": {},
    "version": 1
  }
}