{
  "contractName": "BichoGame",
  "abi": [
    {
      "inputs": [],
      "stateMutability": "nonpayable",
      "type": "constructor"
    },
    {
      "inputs": [],
      "name": "manager",
      "outputs": [
        {
          "internalType": "address",
          "name": "",
          "type": "address"
        }
      ],
      "stateMutability": "view",
      "type": "function",
      "constant": true
    },
    {
      "inputs": [
        {
          "internalType": "address",
          "name": "",
          "type": "address"
        }
      ],
      "name": "playerParticipaing",
      "outputs": [
        {
          "internalType": "bool",
          "name": "",
          "type": "bool"
        }
      ],
      "stateMutability": "view",
      "type": "function",
      "constant": true
    },
    {
      "inputs": [
        {
          "internalType": "uint256",
          "name": "",
          "type": "uint256"
        }
      ],
      "name": "players",
      "outputs": [
        {
          "internalType": "address payable",
          "name": "",
          "type": "address"
        }
      ],
      "stateMutability": "view",
      "type": "function",
      "constant": true
    },
    {
      "stateMutability": "payable",
      "type": "receive",
      "payable": true
    },
    {
      "inputs": [],
      "name": "getPlayers",
      "outputs": [
        {
          "internalType": "address payable[]",
          "name": "",
          "type": "address[]"
        }
      ],
      "stateMutability": "view",
      "type": "function",
      "constant": true
    },
    {
      "inputs": [
        {
          "internalType": "address",
          "name": "addr",
          "type": "address"
        }
      ],
      "name": "getAddrBalance",
      "outputs": [
        {
          "internalType": "uint256",
          "name": "",
          "type": "uint256"
        }
      ],
      "stateMutability": "view",
      "type": "function",
      "constant": true
    },
    {
      "inputs": [],
      "name": "getContractBalance",
      "outputs": [
        {
          "internalType": "uint256",
          "name": "",
          "type": "uint256"
        }
      ],
      "stateMutability": "view",
      "type": "function",
      "constant": true
    },
    {
      "inputs": [],
      "name": "random",
      "outputs": [
        {
          "internalType": "uint256",
          "name": "",
          "type": "uint256"
        }
      ],
      "stateMutability": "view",
      "type": "function",
      "constant": true
    },
    {
      "inputs": [],
      "name": "pickWinner",
      "outputs": [],
      "stateMutability": "nonpayable",
      "type": "function"
    }
  ],
  "bytecode": "0x608060405234801561001057600080fd5b50336000806101000a81548173ffffffffffffffffffffffffffffffffffffffff021916908373ffffffffffffffffffffffffffffffffffffffff160217905550610c79806100606000396000f3fe60806040526004361061007f5760003560e01c806387be02b11161004e57806387be02b11461026b5780638b5b9ccc146102a8578063e46c4e5f146102d3578063f71d96cb14610310576101ce565b8063481c6a75146101d35780635d495aea146101fe5780635ec01e4d146102155780636f9fb98a14610240576101ce565b366101ce57600360003373ffffffffffffffffffffffffffffffffffffffff1673ffffffffffffffffffffffffffffffffffffffff16815260200190815260200160002060009054906101000a900460ff1615610111576040517f08c379a000000000000000000000000000000000000000000000000000000000815260040161010890610a8c565b60405180910390fd5b6001339080600181540180825580915050600190039060005260206000200160009091909190916101000a81548173ffffffffffffffffffffffffffffffffffffffff021916908373ffffffffffffffffffffffffffffffffffffffff1602179055506001600360003373ffffffffffffffffffffffffffffffffffffffff1673ffffffffffffffffffffffffffffffffffffffff16815260200190815260200160002060006101000a81548160ff021916908315150217905550005b600080fd5b3480156101df57600080fd5b506101e861034d565b6040516101f59190610a19565b60405180910390f35b34801561020a57600080fd5b50610213610371565b005b34801561022157600080fd5b5061022a6105a9565b6040516102379190610aec565b60405180910390f35b34801561024c57600080fd5b506102556105e3565b6040516102629190610aec565b60405180910390f35b34801561027757600080fd5b50610292600480360381019061028d91906107f2565b6105eb565b60405161029f9190610a71565b60405180910390f35b3480156102b457600080fd5b506102bd61060b565b6040516102ca9190610a4f565b60405180910390f35b3480156102df57600080fd5b506102fa60048036038101906102f591906107f2565b610699565b6040516103079190610aec565b60405180910390f35b34801561031c57600080fd5b506103376004803603810190610332919061081b565b6106e2565b6040516103449190610a34565b60405180910390f35b60008054906101000a900473ffffffffffffffffffffffffffffffffffffffff1681565b60008054906101000a900473ffffffffffffffffffffffffffffffffffffffff1673ffffffffffffffffffffffffffffffffffffffff163373ffffffffffffffffffffffffffffffffffffffff16146103ff576040517f08c379a00000000000000000000000000000000000000000000000000000000081526004016103f690610aac565b60405180910390fd5b600180805490501015610447576040517f08c379a000000000000000000000000000000000000000000000000000000000815260040161043e90610acc565b60405180910390fd5b60006104516105a9565b9050600080600180549050836104679190610bb5565b9050600181815481106104a3577f4e487b7100000000000000000000000000000000000000000000000000000000600052603260045260246000fd5b9060005260206000200160009054906101000a900473ffffffffffffffffffffffffffffffffffffffff1691508173ffffffffffffffffffffffffffffffffffffffff166108fc6104f26105e3565b9081150290604051600060405180830381858888f1935050505015801561051d573d6000803e3d6000fd5b50600067ffffffffffffffff81111561055f577f4e487b7100000000000000000000000000000000000000000000000000000000600052604160045260246000fd5b60405190808252806020026020018201604052801561058d5781602001602082028036833780820191505090505b50600190805190602001906105a3929190610721565b50505050565b600044426001805490506040516020016105c5939291906109dc565b6040516020818303038152906040528051906020012060001c905090565b600047905090565b60036020528060005260406000206000915054906101000a900460ff1681565b6060600180548060200260200160405190810160405280929190818152602001828054801561068f57602002820191906000526020600020905b8160009054906101000a900473ffffffffffffffffffffffffffffffffffffffff1673ffffffffffffffffffffffffffffffffffffffff1681526020019060010190808311610645575b5050505050905090565b6000600260008373ffffffffffffffffffffffffffffffffffffffff1673ffffffffffffffffffffffffffffffffffffffff168152602001908152602001600020549050919050565b600181815481106106f257600080fd5b906000526020600020016000915054906101000a900473ffffffffffffffffffffffffffffffffffffffff1681565b82805482825590600052602060002090810192821561079a579160200282015b828111156107995782518260006101000a81548173ffffffffffffffffffffffffffffffffffffffff021916908373ffffffffffffffffffffffffffffffffffffffff16021790555091602001919060010190610741565b5b5090506107a791906107ab565b5090565b5b808211156107c45760008160009055506001016107ac565b5090565b6000813590506107d781610c15565b92915050565b6000813590506107ec81610c2c565b92915050565b60006020828403121561080457600080fd5b6000610812848285016107c8565b91505092915050565b60006020828403121561082d57600080fd5b600061083b848285016107dd565b91505092915050565b6000610850838361085c565b60208301905092915050565b61086581610b63565b82525050565b61087481610b63565b82525050565b61088381610b51565b82525050565b600061089482610b17565b61089e8185610b2f565b93506108a983610b07565b8060005b838110156108da5781516108c18882610844565b97506108cc83610b22565b9250506001810190506108ad565b5085935050505092915050565b6108f081610b75565b82525050565b6000610903601683610b40565b91507f706c6179657220616c726561647920706c6179696e67000000000000000000006000830152602082019050919050565b6000610943600483610b40565b91507f47544f21000000000000000000000000000000000000000000000000000000006000830152602082019050919050565b6000610983601e83610b40565b91507f4e6f7420656e6f75676820706c6179657220706172746963697061696e6700006000830152602082019050919050565b6109bf81610ba1565b82525050565b6109d66109d182610ba1565b610bab565b82525050565b60006109e882866109c5565b6020820191506109f882856109c5565b602082019150610a0882846109c5565b602082019150819050949350505050565b6000602082019050610a2e600083018461087a565b92915050565b6000602082019050610a49600083018461086b565b92915050565b60006020820190508181036000830152610a698184610889565b905092915050565b6000602082019050610a8660008301846108e7565b92915050565b60006020820190508181036000830152610aa5816108f6565b9050919050565b60006020820190508181036000830152610ac581610936565b9050919050565b60006020820190508181036000830152610ae581610976565b9050919050565b6000602082019050610b0160008301846109b6565b92915050565b6000819050602082019050919050565b600081519050919050565b6000602082019050919050565b600082825260208201905092915050565b600082825260208201905092915050565b6000610b5c82610b81565b9050919050565b6000610b6e82610b81565b9050919050565b60008115159050919050565b600073ffffffffffffffffffffffffffffffffffffffff82169050919050565b6000819050919050565b6000819050919050565b6000610bc082610ba1565b9150610bcb83610ba1565b925082610bdb57610bda610be6565b5b828206905092915050565b7f4e487b7100000000000000000000000000000000000000000000000000000000600052601260045260246000fd5b610c1e81610b51565b8114610c2957600080fd5b50565b610c3581610ba1565b8114610c4057600080fd5b5056fea264697066735822122023abd225b48db829207e2c06da8671dc37b094f84ecc44e1d57ab6e6efd24dca64736f6c63430008000033",
  "immutableReferences": {},
  "source": "// SPDX-License-Identifier: MIT\npragma solidity >=0.7.1 <0.9.0;\n\ncontract BichoGame {\n    address public manager;\n    address payable[] public players;\n    mapping(address => uint256) balances;\n    mapping(address => bool) public playerParticipaing;\n\n    constructor() {\n        manager = msg.sender;\n    }\n\n    receive() external payable {\n        // require(msg.value > 100000 wei, \"not enough value\");\n        require(!playerParticipaing[msg.sender], \"player already playing\");\n        players.push(payable(msg.sender));\n        playerParticipaing[msg.sender] = true;\n    }\n\n    function getPlayers() public view returns (address payable[] memory) {\n        return players;\n    }\n\n    function getAddrBalance(address addr) public view returns (uint256) {\n        return balances[addr];\n    }\n\n    function getContractBalance() public view returns (uint256) {\n        return address(this).balance;\n    }\n\n    function random() public view returns (uint256) {\n        return\n            uint256(\n                keccak256(\n                    abi.encodePacked(\n                        block.difficulty,\n                        block.timestamp,\n                        players.length\n                    )\n                )\n            );\n    }\n\n    function pickWinner() public {\n        require(msg.sender == manager, \"GTO!\");\n        require(players.length >= 1, \"Not enough player participaing\");\n\n        uint256 rand = random();\n        address payable winner;\n        uint256 index = rand % players.length;\n        // return index;\n        winner = players[index];\n        winner.transfer(getContractBalance());\n        players = new address payable[](0); //reset lottery\n    }\n}\n",
  "sourcePath": "/home/arthur/Desktop/Arthur/Codigos/blockchain/bicho/contracts/BichoGame.sol",
  "compiler": {
    "name": "solc",
    "version": "0.8.0+commit.c7dfd78e.Emscripten.clang"
  },
  "schemaVersion": "3.4.3",
  "updatedAt": "2021-10-30T18:49:24.130Z",
  "networkType": "ethereum",
  "devdoc": {
    "kind": "dev",
    "methods": {},
    "version": 1
  },
  "userdoc": {
    "kind": "user",
    "methods": {},
    "version": 1
  }
}