{
  "contractName": "BichoGame",
  "abi": [
    {
      "inputs": [],
      "stateMutability": "nonpayable",
      "type": "constructor"
    },
    {
      "inputs": [],
      "name": "manager",
      "outputs": [
        {
          "internalType": "address",
          "name": "",
          "type": "address"
        }
      ],
      "stateMutability": "view",
      "type": "function",
      "constant": true
    },
    {
      "inputs": [
        {
          "internalType": "uint256",
          "name": "",
          "type": "uint256"
        }
      ],
      "name": "players",
      "outputs": [
        {
          "internalType": "address payable",
          "name": "",
          "type": "address"
        }
      ],
      "stateMutability": "view",
      "type": "function",
      "constant": true
    },
    {
      "stateMutability": "payable",
      "type": "receive",
      "payable": true
    },
    {
      "inputs": [],
      "name": "getPlayers",
      "outputs": [
        {
          "internalType": "address payable[]",
          "name": "",
          "type": "address[]"
        }
      ],
      "stateMutability": "view",
      "type": "function",
      "constant": true
    },
    {
      "inputs": [
        {
          "internalType": "address",
          "name": "addr",
          "type": "address"
        }
      ],
      "name": "getAddrBalance",
      "outputs": [
        {
          "internalType": "uint256",
          "name": "",
          "type": "uint256"
        }
      ],
      "stateMutability": "view",
      "type": "function",
      "constant": true
    },
    {
      "inputs": [],
      "name": "getContractBalance",
      "outputs": [
        {
          "internalType": "uint256",
          "name": "",
          "type": "uint256"
        }
      ],
      "stateMutability": "view",
      "type": "function",
      "constant": true
    }
  ],
  "bytecode": "0x608060405234801561001057600080fd5b50336000806101000a81548173ffffffffffffffffffffffffffffffffffffffff021916908373ffffffffffffffffffffffffffffffffffffffff160217905550610586806100606000396000f3fe60806040526004361061004e5760003560e01c8063481c6a75146100bd5780636f9fb98a146100e85780638b5b9ccc14610113578063e46c4e5f1461013e578063f71d96cb1461017b576100b8565b366100b8576001339080600181540180825580915050600190039060005260206000200160009091909190916101000a81548173ffffffffffffffffffffffffffffffffffffffff021916908373ffffffffffffffffffffffffffffffffffffffff160217905550005b600080fd5b3480156100c957600080fd5b506100d26101b8565b6040516100df9190610428565b60405180910390f35b3480156100f457600080fd5b506100fd6101dc565b60405161010a9190610480565b60405180910390f35b34801561011f57600080fd5b506101286101e4565b604051610135919061045e565b60405180910390f35b34801561014a57600080fd5b5061016560048036038101906101609190610324565b610272565b6040516101729190610480565b60405180910390f35b34801561018757600080fd5b506101a2600480360381019061019d919061034d565b6102bb565b6040516101af9190610443565b60405180910390f35b60008054906101000a900473ffffffffffffffffffffffffffffffffffffffff1681565b600047905090565b6060600180548060200260200160405190810160405280929190818152602001828054801561026857602002820191906000526020600020905b8160009054906101000a900473ffffffffffffffffffffffffffffffffffffffff1673ffffffffffffffffffffffffffffffffffffffff168152602001906001019080831161021e575b5050505050905090565b6000600260008373ffffffffffffffffffffffffffffffffffffffff1673ffffffffffffffffffffffffffffffffffffffff168152602001908152602001600020549050919050565b600181815481106102cb57600080fd5b906000526020600020016000915054906101000a900473ffffffffffffffffffffffffffffffffffffffff1681565b60008135905061030981610522565b92915050565b60008135905061031e81610539565b92915050565b60006020828403121561033657600080fd5b6000610344848285016102fa565b91505092915050565b60006020828403121561035f57600080fd5b600061036d8482850161030f565b91505092915050565b6000610382838361038e565b60208301905092915050565b610397816104e6565b82525050565b6103a6816104e6565b82525050565b6103b5816104d4565b82525050565b60006103c6826104ab565b6103d081856104c3565b93506103db8361049b565b8060005b8381101561040c5781516103f38882610376565b97506103fe836104b6565b9250506001810190506103df565b5085935050505092915050565b61042281610518565b82525050565b600060208201905061043d60008301846103ac565b92915050565b6000602082019050610458600083018461039d565b92915050565b6000602082019050818103600083015261047881846103bb565b905092915050565b60006020820190506104956000830184610419565b92915050565b6000819050602082019050919050565b600081519050919050565b6000602082019050919050565b600082825260208201905092915050565b60006104df826104f8565b9050919050565b60006104f1826104f8565b9050919050565b600073ffffffffffffffffffffffffffffffffffffffff82169050919050565b6000819050919050565b61052b816104d4565b811461053657600080fd5b50565b61054281610518565b811461054d57600080fd5b5056fea2646970667358221220853c9b788e79f68b24d2d70ae91e30400696901a62683e463ef469674cadae0964736f6c63430008000033",
  "immutableReferences": {},
  "source": "// SPDX-License-Identifier: MIT\npragma solidity >=0.7.1 <0.9.0;\n\ncontract BichoGame {\n    address public manager;\n    address payable[] public players;\n    mapping(address => uint256) balances;\n\n    constructor() {\n        manager = msg.sender;\n    }\n\n    receive() external payable {\n        // require(msg.value > 100000 wei, \"not enough value\");\n        players.push(payable(msg.sender));\n    }\n\n    function getPlayers() public view returns (address payable[] memory) {\n        return players;\n    }\n\n    function getAddrBalance(address addr) public view returns (uint256) {\n        return balances[addr];\n    }\n\n    function getContractBalance() public view returns (uint256) {\n        return address(this).balance;\n    }\n}\n",
  "sourcePath": "/home/arthur/Desktop/Arthur/Codigos/blockchain/bicho/contracts/BichoGame.sol",
  "compiler": {
    "name": "solc",
    "version": "0.8.0+commit.c7dfd78e.Emscripten.clang"
  },
  "schemaVersion": "3.4.3",
  "updatedAt": "2021-10-30T14:51:02.045Z",
  "networkType": "ethereum",
  "devdoc": {
    "kind": "dev",
    "methods": {},
    "version": 1
  },
  "userdoc": {
    "kind": "user",
    "methods": {},
    "version": 1
  }
}