{
  "contractName": "BichoGame",
  "abi": [
    {
      "inputs": [],
      "stateMutability": "nonpayable",
      "type": "constructor"
    },
    {
      "inputs": [],
      "name": "manager",
      "outputs": [
        {
          "internalType": "address",
          "name": "",
          "type": "address"
        }
      ],
      "stateMutability": "view",
      "type": "function"
    },
    {
      "inputs": [
        {
          "internalType": "uint256",
          "name": "",
          "type": "uint256"
        }
      ],
      "name": "players",
      "outputs": [
        {
          "internalType": "address payable",
          "name": "",
          "type": "address"
        }
      ],
      "stateMutability": "view",
      "type": "function"
    },
    {
      "stateMutability": "payable",
      "type": "receive"
    },
    {
      "inputs": [
        {
          "internalType": "address",
          "name": "addr",
          "type": "address"
        }
      ],
      "name": "getAddrBalance",
      "outputs": [
        {
          "internalType": "uint256",
          "name": "",
          "type": "uint256"
        }
      ],
      "stateMutability": "view",
      "type": "function"
    },
    {
      "inputs": [],
      "name": "getContractBalance",
      "outputs": [
        {
          "internalType": "uint256",
          "name": "",
          "type": "uint256"
        }
      ],
      "stateMutability": "view",
      "type": "function"
    }
  ],
  "bytecode": "0x608060405234801561001057600080fd5b50336000806101000a81548173ffffffffffffffffffffffffffffffffffffffff021916908373ffffffffffffffffffffffffffffffffffffffff1602179055506103e2806100606000396000f3fe6080604052600436106100435760003560e01c8063481c6a75146100b25780636f9fb98a146100dd578063e46c4e5f14610108578063f71d96cb14610145576100ad565b366100ad576001339080600181540180825580915050600190039060005260206000200160009091909190916101000a81548173ffffffffffffffffffffffffffffffffffffffff021916908373ffffffffffffffffffffffffffffffffffffffff160217905550005b600080fd5b3480156100be57600080fd5b506100c7610182565b6040516100d491906102df565b60405180910390f35b3480156100e957600080fd5b506100f26101a6565b6040516100ff9190610315565b60405180910390f35b34801561011457600080fd5b5061012f600480360381019061012a9190610260565b6101ae565b60405161013c9190610315565b60405180910390f35b34801561015157600080fd5b5061016c60048036038101906101679190610289565b6101f7565b60405161017991906102fa565b60405180910390f35b60008054906101000a900473ffffffffffffffffffffffffffffffffffffffff1681565b600047905090565b6000600260008373ffffffffffffffffffffffffffffffffffffffff1673ffffffffffffffffffffffffffffffffffffffff168152602001908152602001600020549050919050565b6001818154811061020757600080fd5b906000526020600020016000915054906101000a900473ffffffffffffffffffffffffffffffffffffffff1681565b6000813590506102458161037e565b92915050565b60008135905061025a81610395565b92915050565b60006020828403121561027257600080fd5b600061028084828501610236565b91505092915050565b60006020828403121561029b57600080fd5b60006102a98482850161024b565b91505092915050565b6102bb81610342565b82525050565b6102ca81610330565b82525050565b6102d981610374565b82525050565b60006020820190506102f460008301846102c1565b92915050565b600060208201905061030f60008301846102b2565b92915050565b600060208201905061032a60008301846102d0565b92915050565b600061033b82610354565b9050919050565b600061034d82610354565b9050919050565b600073ffffffffffffffffffffffffffffffffffffffff82169050919050565b6000819050919050565b61038781610330565b811461039257600080fd5b50565b61039e81610374565b81146103a957600080fd5b5056fea2646970667358221220f0dc336b5a62fe2fdc8e9f887c59f2da2c5173586dbd8a6a9d4d1d111ccaeac364736f6c63430008000033",
  "immutableReferences": {},
  "source": "// SPDX-License-Identifier: MIT\npragma solidity >=0.7.1 <0.9.0;\n\ncontract BichoGame {\n    address public manager;\n    address payable[] public players;\n    mapping(address => uint256) balances;\n\n    constructor() {\n        manager = msg.sender;\n    }\n\n    receive() external payable {\n        // require(msg.value > 100000 wei, \"not enough value\");\n        players.push(payable(msg.sender));\n    }\n\n    function getAddrBalance(address addr) public view returns (uint256) {\n        return balances[addr];\n    }\n\n    function getContractBalance() public view returns (uint256) {\n        return address(this).balance;\n    }\n}\n",
  "sourcePath": "/home/arthur/Desktop/Arthur/Codigos/blockchain/bicho/contracts/BichoGame.sol",
  "compiler": {
    "name": "solc",
    "version": "0.8.0+commit.c7dfd78e.Emscripten.clang"
  },
  "schemaVersion": "3.4.3",
  "updatedAt": "2021-10-30T14:06:27.055Z",
  "devdoc": {
    "kind": "dev",
    "methods": {},
    "version": 1
  },
  "userdoc": {
    "kind": "user",
    "methods": {},
    "version": 1
  }
}