{
  "contractName": "BichoGame",
  "abi": [
    {
      "inputs": [],
      "stateMutability": "nonpayable",
      "type": "constructor"
    },
    {
      "inputs": [],
      "name": "manager",
      "outputs": [
        {
          "internalType": "address",
          "name": "",
          "type": "address"
        }
      ],
      "stateMutability": "view",
      "type": "function",
      "constant": true
    },
    {
      "inputs": [
        {
          "internalType": "address",
          "name": "",
          "type": "address"
        }
      ],
      "name": "playerParticipaing",
      "outputs": [
        {
          "internalType": "bool",
          "name": "",
          "type": "bool"
        }
      ],
      "stateMutability": "view",
      "type": "function",
      "constant": true
    },
    {
      "inputs": [
        {
          "internalType": "uint256",
          "name": "",
          "type": "uint256"
        }
      ],
      "name": "players",
      "outputs": [
        {
          "internalType": "address payable",
          "name": "",
          "type": "address"
        }
      ],
      "stateMutability": "view",
      "type": "function",
      "constant": true
    },
    {
      "stateMutability": "payable",
      "type": "receive",
      "payable": true
    },
    {
      "inputs": [],
      "name": "getPlayers",
      "outputs": [
        {
          "internalType": "address payable[]",
          "name": "",
          "type": "address[]"
        }
      ],
      "stateMutability": "view",
      "type": "function",
      "constant": true
    },
    {
      "inputs": [
        {
          "internalType": "address",
          "name": "addr",
          "type": "address"
        }
      ],
      "name": "getAddrBalance",
      "outputs": [
        {
          "internalType": "uint256",
          "name": "",
          "type": "uint256"
        }
      ],
      "stateMutability": "view",
      "type": "function",
      "constant": true
    },
    {
      "inputs": [],
      "name": "getContractBalance",
      "outputs": [
        {
          "internalType": "uint256",
          "name": "",
          "type": "uint256"
        }
      ],
      "stateMutability": "view",
      "type": "function",
      "constant": true
    },
    {
      "inputs": [],
      "name": "random",
      "outputs": [
        {
          "internalType": "uint256",
          "name": "",
          "type": "uint256"
        }
      ],
      "stateMutability": "view",
      "type": "function",
      "constant": true
    },
    {
      "inputs": [],
      "name": "cleanPlayerParticipaing",
      "outputs": [],
      "stateMutability": "nonpayable",
      "type": "function"
    },
    {
      "inputs": [],
      "name": "pickWinner",
      "outputs": [],
      "stateMutability": "nonpayable",
      "type": "function"
    }
  ],
  "bytecode": "0x608060405234801561001057600080fd5b50336000806101000a81548173ffffffffffffffffffffffffffffffffffffffff021916908373ffffffffffffffffffffffffffffffffffffffff160217905550610c9d806100606000396000f3fe60806040526004361061008a5760003560e01c806387be02b11161005957806387be02b1146102765780638b5b9ccc146102b3578063cc02c058146102de578063e46c4e5f146102f5578063f71d96cb14610332576101d9565b8063481c6a75146101de5780635d495aea146102095780635ec01e4d146102205780636f9fb98a1461024b576101d9565b366101d957600360003373ffffffffffffffffffffffffffffffffffffffff1673ffffffffffffffffffffffffffffffffffffffff16815260200190815260200160002060009054906101000a900460ff161561011c576040517f08c379a000000000000000000000000000000000000000000000000000000000815260040161011390610ab0565b60405180910390fd5b6001339080600181540180825580915050600190039060005260206000200160009091909190916101000a81548173ffffffffffffffffffffffffffffffffffffffff021916908373ffffffffffffffffffffffffffffffffffffffff1602179055506001600360003373ffffffffffffffffffffffffffffffffffffffff1673ffffffffffffffffffffffffffffffffffffffff16815260200190815260200160002060006101000a81548160ff021916908315150217905550005b600080fd5b3480156101ea57600080fd5b506101f361036f565b6040516102009190610a3d565b60405180910390f35b34801561021557600080fd5b5061021e610393565b005b34801561022c57600080fd5b506102356105cb565b6040516102429190610b10565b60405180910390f35b34801561025757600080fd5b50610260610605565b60405161026d9190610b10565b60405180910390f35b34801561028257600080fd5b5061029d60048036038101906102989190610816565b61060d565b6040516102aa9190610a95565b60405180910390f35b3480156102bf57600080fd5b506102c861062d565b6040516102d59190610a73565b60405180910390f35b3480156102ea57600080fd5b506102f36106bb565b005b34801561030157600080fd5b5061031c60048036038101906103179190610816565b6106bd565b6040516103299190610b10565b60405180910390f35b34801561033e57600080fd5b506103596004803603810190610354919061083f565b610706565b6040516103669190610a58565b60405180910390f35b60008054906101000a900473ffffffffffffffffffffffffffffffffffffffff1681565b60008054906101000a900473ffffffffffffffffffffffffffffffffffffffff1673ffffffffffffffffffffffffffffffffffffffff163373ffffffffffffffffffffffffffffffffffffffff1614610421576040517f08c379a000000000000000000000000000000000000000000000000000000000815260040161041890610ad0565b60405180910390fd5b600180805490501015610469576040517f08c379a000000000000000000000000000000000000000000000000000000000815260040161046090610af0565b60405180910390fd5b60006104736105cb565b9050600080600180549050836104899190610bd9565b9050600181815481106104c5577f4e487b7100000000000000000000000000000000000000000000000000000000600052603260045260246000fd5b9060005260206000200160009054906101000a900473ffffffffffffffffffffffffffffffffffffffff1691508173ffffffffffffffffffffffffffffffffffffffff166108fc610514610605565b9081150290604051600060405180830381858888f1935050505015801561053f573d6000803e3d6000fd5b50600067ffffffffffffffff811115610581577f4e487b7100000000000000000000000000000000000000000000000000000000600052604160045260246000fd5b6040519080825280602002602001820160405280156105af5781602001602082028036833780820191505090505b50600190805190602001906105c5929190610745565b50505050565b600044426001805490506040516020016105e793929190610a00565b6040516020818303038152906040528051906020012060001c905090565b600047905090565b60036020528060005260406000206000915054906101000a900460ff1681565b606060018054806020026020016040519081016040528092919081815260200182805480156106b157602002820191906000526020600020905b8160009054906101000a900473ffffffffffffffffffffffffffffffffffffffff1673ffffffffffffffffffffffffffffffffffffffff1681526020019060010190808311610667575b5050505050905090565b565b6000600260008373ffffffffffffffffffffffffffffffffffffffff1673ffffffffffffffffffffffffffffffffffffffff168152602001908152602001600020549050919050565b6001818154811061071657600080fd5b906000526020600020016000915054906101000a900473ffffffffffffffffffffffffffffffffffffffff1681565b8280548282559060005260206000209081019282156107be579160200282015b828111156107bd5782518260006101000a81548173ffffffffffffffffffffffffffffffffffffffff021916908373ffffffffffffffffffffffffffffffffffffffff16021790555091602001919060010190610765565b5b5090506107cb91906107cf565b5090565b5b808211156107e85760008160009055506001016107d0565b5090565b6000813590506107fb81610c39565b92915050565b60008135905061081081610c50565b92915050565b60006020828403121561082857600080fd5b6000610836848285016107ec565b91505092915050565b60006020828403121561085157600080fd5b600061085f84828501610801565b91505092915050565b60006108748383610880565b60208301905092915050565b61088981610b87565b82525050565b61089881610b87565b82525050565b6108a781610b75565b82525050565b60006108b882610b3b565b6108c28185610b53565b93506108cd83610b2b565b8060005b838110156108fe5781516108e58882610868565b97506108f083610b46565b9250506001810190506108d1565b5085935050505092915050565b61091481610b99565b82525050565b6000610927601683610b64565b91507f706c6179657220616c726561647920706c6179696e67000000000000000000006000830152602082019050919050565b6000610967600483610b64565b91507f47544f21000000000000000000000000000000000000000000000000000000006000830152602082019050919050565b60006109a7601e83610b64565b91507f4e6f7420656e6f75676820706c6179657220706172746963697061696e6700006000830152602082019050919050565b6109e381610bc5565b82525050565b6109fa6109f582610bc5565b610bcf565b82525050565b6000610a0c82866109e9565b602082019150610a1c82856109e9565b602082019150610a2c82846109e9565b602082019150819050949350505050565b6000602082019050610a52600083018461089e565b92915050565b6000602082019050610a6d600083018461088f565b92915050565b60006020820190508181036000830152610a8d81846108ad565b905092915050565b6000602082019050610aaa600083018461090b565b92915050565b60006020820190508181036000830152610ac98161091a565b9050919050565b60006020820190508181036000830152610ae98161095a565b9050919050565b60006020820190508181036000830152610b098161099a565b9050919050565b6000602082019050610b2560008301846109da565b92915050565b6000819050602082019050919050565b600081519050919050565b6000602082019050919050565b600082825260208201905092915050565b600082825260208201905092915050565b6000610b8082610ba5565b9050919050565b6000610b9282610ba5565b9050919050565b60008115159050919050565b600073ffffffffffffffffffffffffffffffffffffffff82169050919050565b6000819050919050565b6000819050919050565b6000610be482610bc5565b9150610bef83610bc5565b925082610bff57610bfe610c0a565b5b828206905092915050565b7f4e487b7100000000000000000000000000000000000000000000000000000000600052601260045260246000fd5b610c4281610b75565b8114610c4d57600080fd5b50565b610c5981610bc5565b8114610c6457600080fd5b5056fea2646970667358221220726f2b896d117fb6cb345d63709dffbd399b0310cac7f1f3f08a120ebaee5ce664736f6c63430008000033",
  "immutableReferences": {},
  "source": "// SPDX-License-Identifier: MIT\npragma solidity >=0.7.1 <0.9.0;\n\ncontract BichoGame {\n    address public manager;\n    address payable[] public players;\n    mapping(address => uint256) balances;\n    mapping(address => bool) public playerParticipaing;\n\n    constructor() {\n        manager = msg.sender;\n    }\n\n    receive() external payable {\n        // require(msg.value > 100000 wei, \"not enough value\");\n        require(!playerParticipaing[msg.sender], \"player already playing\");\n        players.push(payable(msg.sender));\n        playerParticipaing[msg.sender] = true;\n    }\n\n    function getPlayers() public view returns (address payable[] memory) {\n        return players;\n    }\n\n    function getAddrBalance(address addr) public view returns (uint256) {\n        return balances[addr];\n    }\n\n    function getContractBalance() public view returns (uint256) {\n        return address(this).balance;\n    }\n\n    function random() public view returns (uint256) {\n        return\n            uint256(\n                keccak256(\n                    abi.encodePacked(\n                        block.difficulty,\n                        block.timestamp,\n                        players.length\n                    )\n                )\n            );\n    }\n\n    function cleanPlayerParticipaing() public {}\n\n    function pickWinner() public {\n        require(msg.sender == manager, \"GTO!\");\n        require(players.length >= 1, \"Not enough player participaing\");\n\n        uint256 rand = random();\n        address payable winner;\n        uint256 index = rand % players.length;\n        // return index;\n        winner = players[index];\n        winner.transfer(getContractBalance());\n        players = new address payable[](0); //reset lottery\n    }\n}\n",
  "sourcePath": "/Users/arthurgallina/Desktop/Arthur/Codigos/dapp-bixo/contracts/BichoGame.sol",
  "compiler": {
    "name": "solc",
    "version": "0.8.0+commit.c7dfd78e.Emscripten.clang"
  },
  "schemaVersion": "3.4.3",
  "updatedAt": "2021-11-02T02:40:22.409Z",
  "networkType": "ethereum",
  "devdoc": {
    "kind": "dev",
    "methods": {},
    "version": 1
  },
  "userdoc": {
    "kind": "user",
    "methods": {},
    "version": 1
  }
}