{
  "contractName": "BichoGameV2",
  "abi": [
    {
      "inputs": [
        {
          "internalType": "uint256",
          "name": "",
          "type": "uint256"
        }
      ],
      "name": "animals",
      "outputs": [
        {
          "internalType": "uint256",
          "name": "",
          "type": "uint256"
        }
      ],
      "stateMutability": "view",
      "type": "function",
      "constant": true
    },
    {
      "inputs": [
        {
          "internalType": "uint256",
          "name": "",
          "type": "uint256"
        }
      ],
      "name": "players",
      "outputs": [
        {
          "internalType": "address payable",
          "name": "addr",
          "type": "address"
        },
        {
          "internalType": "uint256",
          "name": "animal",
          "type": "uint256"
        },
        {
          "internalType": "bool",
          "name": "playing",
          "type": "bool"
        }
      ],
      "stateMutability": "view",
      "type": "function",
      "constant": true
    },
    {
      "inputs": [
        {
          "internalType": "address",
          "name": "",
          "type": "address"
        }
      ],
      "name": "whosPlaying",
      "outputs": [
        {
          "internalType": "address payable",
          "name": "addr",
          "type": "address"
        },
        {
          "internalType": "uint256",
          "name": "animal",
          "type": "uint256"
        },
        {
          "internalType": "bool",
          "name": "playing",
          "type": "bool"
        }
      ],
      "stateMutability": "view",
      "type": "function",
      "constant": true
    },
    {
      "stateMutability": "payable",
      "type": "receive",
      "payable": true
    },
    {
      "inputs": [],
      "name": "getContractBalance",
      "outputs": [
        {
          "internalType": "uint256",
          "name": "",
          "type": "uint256"
        }
      ],
      "stateMutability": "view",
      "type": "function",
      "constant": true
    },
    {
      "inputs": [],
      "name": "random",
      "outputs": [
        {
          "internalType": "uint256",
          "name": "",
          "type": "uint256"
        }
      ],
      "stateMutability": "view",
      "type": "function",
      "constant": true
    },
    {
      "inputs": [],
      "name": "pickWinner",
      "outputs": [],
      "stateMutability": "nonpayable",
      "type": "function"
    }
  ],
  "bytecode": "0x60806040526040518060c00160405280600060ff168152602001600160ff168152602001600260ff168152602001600360ff168152602001600460ff168152602001600560ff16815250600090600661005992919061006c565b5034801561006657600080fd5b506100db565b8280548282559060005260206000209081019282156100ad579160200282015b828111156100ac578251829060ff1690559160200191906001019061008c565b5b5090506100ba91906100be565b5090565b5b808211156100d75760008160009055506001016100bf565b5090565b6108f7806100ea6000396000f3fe6080604052600436106100595760003560e01c80635d495aea146101655780635ec01e4d1461017c5780636f9fb98a146101a7578063998dd3ca146101d2578063cd2602e11461020f578063f71d96cb1461024e57610160565b3661016057610066610558565b33816000019073ffffffffffffffffffffffffffffffffffffffff16908173ffffffffffffffffffffffffffffffffffffffff16815250506002805490508160200181815250506001816040019015159081151581525050600281908060018154018082558091505060019003906000526020600020906003020160009091909190915060008201518160000160006101000a81548173ffffffffffffffffffffffffffffffffffffffff021916908373ffffffffffffffffffffffffffffffffffffffff1602179055506020820151816001015560408201518160020160006101000a81548160ff021916908315150217905550505050005b600080fd5b34801561017157600080fd5b5061017a61028d565b005b34801561018857600080fd5b50610191610434565b60405161019e91906107a3565b60405180910390f35b3480156101b357600080fd5b506101bc61046e565b6040516101c991906107a3565b60405180910390f35b3480156101de57600080fd5b506101f960048036038101906101f49190610662565b610476565b60405161020691906107a3565b60405180910390f35b34801561021b57600080fd5b5061023660048036038101906102319190610639565b61049a565b6040516102459392919061074c565b60405180910390f35b34801561025a57600080fd5b5061027560048036038101906102709190610662565b6104f1565b6040516102849392919061074c565b60405180910390f35b600160028054905010156102d6576040517f08c379a00000000000000000000000000000000000000000000000000000000081526004016102cd90610783565b60405180910390fd5b60006102e0610434565b90506102ea610558565b6000600280549050836102fd9190610833565b905060028181548110610339577f4e487b7100000000000000000000000000000000000000000000000000000000600052603260045260246000fd5b90600052602060002090600302016040518060600160405290816000820160009054906101000a900473ffffffffffffffffffffffffffffffffffffffff1673ffffffffffffffffffffffffffffffffffffffff1673ffffffffffffffffffffffffffffffffffffffff168152602001600182015481526020016002820160009054906101000a900460ff1615151515815250509150816000015173ffffffffffffffffffffffffffffffffffffffff166108fc6103f561046e565b9081150290604051600060405180830381858888f19350505050158015610420573d6000803e3d6000fd5b506002600061042f9190610591565b505050565b600044426002805490506040516020016104509392919061070f565b6040516020818303038152906040528051906020012060001c905090565b600047905090565b6000818154811061048657600080fd5b906000526020600020016000915090505481565b60016020528060005260406000206000915090508060000160009054906101000a900473ffffffffffffffffffffffffffffffffffffffff16908060010154908060020160009054906101000a900460ff16905083565b6002818154811061050157600080fd5b90600052602060002090600302016000915090508060000160009054906101000a900473ffffffffffffffffffffffffffffffffffffffff16908060010154908060020160009054906101000a900460ff16905083565b6040518060600160405280600073ffffffffffffffffffffffffffffffffffffffff168152602001600081526020016000151581525090565b50805460008255600302906000526020600020908101906105b291906105b5565b50565b5b8082111561060b57600080820160006101000a81549073ffffffffffffffffffffffffffffffffffffffff021916905560018201600090556002820160006101000a81549060ff0219169055506003016105b6565b5090565b60008135905061061e81610893565b92915050565b600081359050610633816108aa565b92915050565b60006020828403121561064b57600080fd5b60006106598482850161060f565b91505092915050565b60006020828403121561067457600080fd5b600061068284828501610624565b91505092915050565b610694816107e1565b82525050565b6106a3816107f3565b82525050565b60006106b6601e836107be565b91507f4e6f7420656e6f75676820706c6179657220706172746963697061696e6700006000830152602082019050919050565b6106f28161081f565b82525050565b6107096107048261081f565b610829565b82525050565b600061071b82866106f8565b60208201915061072b82856106f8565b60208201915061073b82846106f8565b602082019150819050949350505050565b6000606082019050610761600083018661068b565b61076e60208301856106e9565b61077b604083018461069a565b949350505050565b6000602082019050818103600083015261079c816106a9565b9050919050565b60006020820190506107b860008301846106e9565b92915050565b600082825260208201905092915050565b60006107da826107ff565b9050919050565b60006107ec826107ff565b9050919050565b60008115159050919050565b600073ffffffffffffffffffffffffffffffffffffffff82169050919050565b6000819050919050565b6000819050919050565b600061083e8261081f565b91506108498361081f565b92508261085957610858610864565b5b828206905092915050565b7f4e487b7100000000000000000000000000000000000000000000000000000000600052601260045260246000fd5b61089c816107cf565b81146108a757600080fd5b50565b6108b38161081f565b81146108be57600080fd5b5056fea264697066735822122090ed94dca518526f5282a6397b4e318de7357b283693697462a0590448535ee864736f6c63430008000033",
  "immutableReferences": {},
  "source": "// SPDX-License-Identifier: MIT\npragma solidity >=0.7.1 <0.9.0;\n\ncontract BichoGameV2 {\n    struct Player {\n        address payable addr;\n        uint256 animal;\n        bool playing;\n    }\n\n    uint256[] public animals = [0, 1, 2, 3, 4, 5];\n    mapping(address => Player) public whosPlaying;\n    Player[] public players;\n\n    receive() external payable {\n        Player memory newPlayer;\n        newPlayer.addr = payable(msg.sender);\n        newPlayer.animal = players.length;\n        newPlayer.playing = true;\n\n        // require(whosPlaying[msg.sender].playing != true, 'Already playing!');\n        players.push(newPlayer);\n    }\n\n    function getContractBalance() public view returns (uint256) {\n        return address(this).balance;\n    }\n\n    function random() public view returns (uint256) {\n        return\n            uint256(\n                keccak256(\n                    abi.encodePacked(\n                        block.difficulty,\n                        block.timestamp,\n                        players.length\n                    )\n                )\n            );\n    }\n\n    function pickWinner() public {\n        require(players.length >= 1, \"Not enough player participaing\");\n\n        uint256 rand = random();\n        // address payable winner;\n        Player memory winner;\n        uint256 index = rand % players.length;\n        // return index;\n        winner = players[index];\n        winner.addr.transfer(getContractBalance());\n\n        //players = new Player[](0);  // this doesnt work because players is storage and new Player[](0) is in memory.\n        delete players;\n    }\n}\n",
  "sourcePath": "/home/arthur/Desktop/Arthur/Codigos/blockchain/bicho/contracts/BichoGameV2.sol",
  "compiler": {
    "name": "solc",
    "version": "0.8.0+commit.c7dfd78e.Emscripten.clang"
  },
  "schemaVersion": "3.4.3",
  "updatedAt": "2021-11-03T23:23:26.288Z",
  "networkType": "ethereum",
  "devdoc": {
    "kind": "dev",
    "methods": {},
    "version": 1
  },
  "userdoc": {
    "kind": "user",
    "methods": {},
    "version": 1
  }
}