{
  "contractName": "Creator",
  "abi": [
    {
      "inputs": [],
      "stateMutability": "nonpayable",
      "type": "constructor"
    },
    {
      "inputs": [
        {
          "internalType": "uint256",
          "name": "",
          "type": "uint256"
        }
      ],
      "name": "deployedFirstContract",
      "outputs": [
        {
          "internalType": "contract FirstContract",
          "name": "",
          "type": "address"
        }
      ],
      "stateMutability": "view",
      "type": "function"
    },
    {
      "inputs": [],
      "name": "ownerCreator",
      "outputs": [
        {
          "internalType": "address",
          "name": "",
          "type": "address"
        }
      ],
      "stateMutability": "view",
      "type": "function"
    },
    {
      "inputs": [],
      "name": "deployA",
      "outputs": [],
      "stateMutability": "nonpayable",
      "type": "function"
    }
  ],
  "bytecode": "0x608060405234801561001057600080fd5b50336000806101000a81548173ffffffffffffffffffffffffffffffffffffffff021916908373ffffffffffffffffffffffffffffffffffffffff1602179055506104ef806100606000396000f3fe608060405234801561001057600080fd5b50600436106100415760003560e01c806394fa419814610046578063f4baaa6114610064578063ffebbb301461006e575b600080fd5b61004e61009e565b60405161005b9190610208565b60405180910390f35b61006c6100c2565b005b610088600480360381019061008391906101c1565b610160565b6040516100959190610223565b60405180910390f35b60008054906101000a900473ffffffffffffffffffffffffffffffffffffffff1681565b6000336040516100d19061019f565b6100db9190610208565b604051809103906000f0801580156100f7573d6000803e3d6000fd5b5090506001819080600181540180825580915050600190039060005260206000200160009091909190916101000a81548173ffffffffffffffffffffffffffffffffffffffff021916908373ffffffffffffffffffffffffffffffffffffffff16021790555050565b6001818154811061017057600080fd5b906000526020600020016000915054906101000a900473ffffffffffffffffffffffffffffffffffffffff1681565b610204806102b683390190565b6000813590506101bb8161029e565b92915050565b6000602082840312156101d357600080fd5b60006101e1848285016101ac565b91505092915050565b6101f38161023e565b82525050565b6102028161027a565b82525050565b600060208201905061021d60008301846101ea565b92915050565b600060208201905061023860008301846101f9565b92915050565b600061024982610250565b9050919050565b600073ffffffffffffffffffffffffffffffffffffffff82169050919050565b6000819050919050565b60006102858261028c565b9050919050565b600061029782610250565b9050919050565b6102a781610270565b81146102b257600080fd5b5056fe608060405234801561001057600080fd5b506040516102043803806102048339818101604052810190610032919061008d565b806000806101000a81548173ffffffffffffffffffffffffffffffffffffffff021916908373ffffffffffffffffffffffffffffffffffffffff160217905550506100ff565b600081519050610087816100e8565b92915050565b60006020828403121561009f57600080fd5b60006100ad84828501610078565b91505092915050565b60006100c1826100c8565b9050919050565b600073ffffffffffffffffffffffffffffffffffffffff82169050919050565b6100f1816100b6565b81146100fc57600080fd5b50565b60f78061010d6000396000f3fe6080604052348015600f57600080fd5b506004361060285760003560e01c8063e06f3d3814602d575b600080fd5b60336047565b604051603e91906078565b60405180910390f35b60008054906101000a900473ffffffffffffffffffffffffffffffffffffffff1681565b6072816091565b82525050565b6000602082019050608b6000830184606b565b92915050565b6000609a8260a1565b9050919050565b600073ffffffffffffffffffffffffffffffffffffffff8216905091905056fea2646970667358221220afa0b3f665343a2e864f9f71caa44f09abc85c0cdbac3578b1b06be9ef21746d64736f6c63430008000033a264697066735822122054a40f2c2b9e0140885ff63a32a0c237927781698abecbac929a2a068690445664736f6c63430008000033",
  "immutableReferences": {},
  "source": "// SPDX-License-Identifier: GPL-3.0\n\npragma solidity >=0.7.0 <0.9.0;\n\ncontract FirstContract {\n    address public ownerA;\n\n    // externally owned account\n    constructor(address eoa) {\n        ownerA = eoa;\n    }\n}\n\ncontract Creator {\n    address public ownerCreator;\n    FirstContract[] public deployedFirstContract;\n\n    constructor() {\n        ownerCreator = msg.sender;\n    }\n\n    function deployA() public {\n        // a intance of FirstContract so deploys another contract\n        // This way the owner would be this contract address and not the user calling it\n        // FirstContract newAAdress = new FirstContract();\n\n        FirstContract newAAdress = new FirstContract(msg.sender);\n\n        deployedFirstContract.push(newAAdress);\n    }\n}\n",
  "sourcePath": "/home/arthur/Desktop/Arthur/Codigos/blockchain/bicho/contracts/Creator.sol",
  "compiler": {
    "name": "solc",
    "version": "0.8.0+commit.c7dfd78e.Emscripten.clang"
  },
  "schemaVersion": "3.4.3",
  "updatedAt": "2021-11-08T11:50:03.482Z",
  "devdoc": {
    "kind": "dev",
    "methods": {},
    "version": 1
  },
  "userdoc": {
    "kind": "user",
    "methods": {},
    "version": 1
  }
}