{
  "contractName": "Cryptos",
  "abi": [
    {
      "inputs": [],
      "stateMutability": "nonpayable",
      "type": "constructor"
    },
    {
      "anonymous": false,
      "inputs": [
        {
          "indexed": true,
          "internalType": "address",
          "name": "owner",
          "type": "address"
        },
        {
          "indexed": true,
          "internalType": "address",
          "name": "spender",
          "type": "address"
        },
        {
          "indexed": false,
          "internalType": "uint256",
          "name": "value",
          "type": "uint256"
        }
      ],
      "name": "Approval",
      "type": "event"
    },
    {
      "anonymous": false,
      "inputs": [
        {
          "indexed": true,
          "internalType": "address",
          "name": "from",
          "type": "address"
        },
        {
          "indexed": true,
          "internalType": "address",
          "name": "to",
          "type": "address"
        },
        {
          "indexed": false,
          "internalType": "uint256",
          "name": "value",
          "type": "uint256"
        }
      ],
      "name": "Transfer",
      "type": "event"
    },
    {
      "inputs": [
        {
          "internalType": "address",
          "name": "",
          "type": "address"
        }
      ],
      "name": "balances",
      "outputs": [
        {
          "internalType": "uint256",
          "name": "",
          "type": "uint256"
        }
      ],
      "stateMutability": "view",
      "type": "function"
    },
    {
      "inputs": [],
      "name": "decimals",
      "outputs": [
        {
          "internalType": "uint256",
          "name": "",
          "type": "uint256"
        }
      ],
      "stateMutability": "view",
      "type": "function"
    },
    {
      "inputs": [],
      "name": "founder",
      "outputs": [
        {
          "internalType": "address",
          "name": "",
          "type": "address"
        }
      ],
      "stateMutability": "view",
      "type": "function"
    },
    {
      "inputs": [],
      "name": "name",
      "outputs": [
        {
          "internalType": "string",
          "name": "",
          "type": "string"
        }
      ],
      "stateMutability": "view",
      "type": "function"
    },
    {
      "inputs": [],
      "name": "symbol",
      "outputs": [
        {
          "internalType": "string",
          "name": "",
          "type": "string"
        }
      ],
      "stateMutability": "view",
      "type": "function"
    },
    {
      "inputs": [],
      "name": "totalSupply",
      "outputs": [
        {
          "internalType": "uint256",
          "name": "",
          "type": "uint256"
        }
      ],
      "stateMutability": "view",
      "type": "function"
    },
    {
      "inputs": [
        {
          "internalType": "address",
          "name": "tokenOwner",
          "type": "address"
        }
      ],
      "name": "balanceOf",
      "outputs": [
        {
          "internalType": "uint256",
          "name": "balance",
          "type": "uint256"
        }
      ],
      "stateMutability": "view",
      "type": "function"
    },
    {
      "inputs": [
        {
          "internalType": "address",
          "name": "to",
          "type": "address"
        },
        {
          "internalType": "uint256",
          "name": "tokens",
          "type": "uint256"
        }
      ],
      "name": "transfer",
      "outputs": [
        {
          "internalType": "bool",
          "name": "success",
          "type": "bool"
        }
      ],
      "stateMutability": "nonpayable",
      "type": "function"
    }
  ],
  "bytecode": "0x60806040526040518060400160405280600781526020017f43727970746f73000000000000000000000000000000000000000000000000008152506000908051906020019061004f929190610166565b506040518060400160405280600481526020017f43525054000000000000000000000000000000000000000000000000000000008152506001908051906020019061009b929190610166565b5060006002553480156100ad57600080fd5b50620f424060038190555033600460006101000a81548173ffffffffffffffffffffffffffffffffffffffff021916908373ffffffffffffffffffffffffffffffffffffffff16021790555060035460056000600460009054906101000a900473ffffffffffffffffffffffffffffffffffffffff1673ffffffffffffffffffffffffffffffffffffffff1673ffffffffffffffffffffffffffffffffffffffff1681526020019081526020016000208190555061026a565b82805461017290610209565b90600052602060002090601f01602090048101928261019457600085556101db565b82601f106101ad57805160ff19168380011785556101db565b828001600101855582156101db579182015b828111156101da5782518255916020019190600101906101bf565b5b5090506101e891906101ec565b5090565b5b808211156102055760008160009055506001016101ed565b5090565b6000600282049050600182168061022157607f821691505b602082108114156102355761023461023b565b5b50919050565b7f4e487b7100000000000000000000000000000000000000000000000000000000600052602260045260246000fd5b6108ad806102796000396000f3fe608060405234801561001057600080fd5b50600436106100885760003560e01c80634d853ee51161005b5780634d853ee51461011757806370a082311461013557806395d89b4114610165578063a9059cbb1461018357610088565b806306fdde031461008d57806318160ddd146100ab57806327e235e3146100c9578063313ce567146100f9575b600080fd5b6100956101b3565b6040516100a2919061062a565b60405180910390f35b6100b3610241565b6040516100c0919061066c565b60405180910390f35b6100e360048036038101906100de91906104e9565b610247565b6040516100f0919061066c565b60405180910390f35b61010161025f565b60405161010e919061066c565b60405180910390f35b61011f610265565b60405161012c91906105f4565b60405180910390f35b61014f600480360381019061014a91906104e9565b61028b565b60405161015c919061066c565b60405180910390f35b61016d610292565b60405161017a919061062a565b60405180910390f35b61019d60048036038101906101989190610512565b610320565b6040516101aa919061060f565b60405180910390f35b600080546101c0906107a8565b80601f01602080910402602001604051908101604052809291908181526020018280546101ec906107a8565b80156102395780601f1061020e57610100808354040283529160200191610239565b820191906000526020600020905b81548152906001019060200180831161021c57829003601f168201915b505050505081565b60035481565b60056020528060005260406000206000915090505481565b60025481565b600460009054906101000a900473ffffffffffffffffffffffffffffffffffffffff1681565b6000919050565b6001805461029f906107a8565b80601f01602080910402602001604051908101604052809291908181526020018280546102cb906107a8565b80156103185780601f106102ed57610100808354040283529160200191610318565b820191906000526020600020905b8154815290600101906020018083116102fb57829003601f168201915b505050505081565b600081600560003373ffffffffffffffffffffffffffffffffffffffff1673ffffffffffffffffffffffffffffffffffffffff1681526020019081526020016000205410156103a4576040517f08c379a000000000000000000000000000000000000000000000000000000000815260040161039b9061064c565b60405180910390fd5b81600560008573ffffffffffffffffffffffffffffffffffffffff1673ffffffffffffffffffffffffffffffffffffffff16815260200190815260200160002060008282546103f391906106a3565b9250508190555081600560003373ffffffffffffffffffffffffffffffffffffffff1673ffffffffffffffffffffffffffffffffffffffff168152602001908152602001600020600082825461044991906106f9565b925050819055508273ffffffffffffffffffffffffffffffffffffffff163373ffffffffffffffffffffffffffffffffffffffff167fddf252ad1be2c89b69c2b068fc378daa952ba7f163c4a11628f55a4df523b3ef846040516104ad919061066c565b60405180910390a36001905092915050565b6000813590506104ce81610849565b92915050565b6000813590506104e381610860565b92915050565b6000602082840312156104fb57600080fd5b6000610509848285016104bf565b91505092915050565b6000806040838503121561052557600080fd5b6000610533858286016104bf565b9250506020610544858286016104d4565b9150509250929050565b6105578161072d565b82525050565b6105668161073f565b82525050565b600061057782610687565b6105818185610692565b9350610591818560208601610775565b61059a81610838565b840191505092915050565b60006105b2601183610692565b91507f6e6f7420656e6f75676820746f6b656e730000000000000000000000000000006000830152602082019050919050565b6105ee8161076b565b82525050565b6000602082019050610609600083018461054e565b92915050565b6000602082019050610624600083018461055d565b92915050565b60006020820190508181036000830152610644818461056c565b905092915050565b60006020820190508181036000830152610665816105a5565b9050919050565b600060208201905061068160008301846105e5565b92915050565b600081519050919050565b600082825260208201905092915050565b60006106ae8261076b565b91506106b98361076b565b9250827fffffffffffffffffffffffffffffffffffffffffffffffffffffffffffffffff038211156106ee576106ed6107da565b5b828201905092915050565b60006107048261076b565b915061070f8361076b565b925082821015610722576107216107da565b5b828203905092915050565b60006107388261074b565b9050919050565b60008115159050919050565b600073ffffffffffffffffffffffffffffffffffffffff82169050919050565b6000819050919050565b60005b83811015610793578082015181840152602081019050610778565b838111156107a2576000848401525b50505050565b600060028204905060018216806107c057607f821691505b602082108114156107d4576107d3610809565b5b50919050565b7f4e487b7100000000000000000000000000000000000000000000000000000000600052601160045260246000fd5b7f4e487b7100000000000000000000000000000000000000000000000000000000600052602260045260246000fd5b6000601f19601f8301169050919050565b6108528161072d565b811461085d57600080fd5b50565b6108698161076b565b811461087457600080fd5b5056fea2646970667358221220b102b2842c16f9cff6fc8e8d3c17a36ba8572493b63e3f71b674f752dab8ed5e64736f6c63430008000033",
  "immutableReferences": {},
  "source": "// SPDX-License-Identifier: MIT\npragma solidity >=0.7.1 <0.9.0;\n\ninterface ERC20Interface {\n    function totalSupply() external view returns (uint256);\n\n    function balanceOf(address owner) external view returns (uint256);\n\n    function transfer(address to, uint256 value) external returns (bool);\n\n    // function allowance(address owner, address spender)\n    //     public\n    //     view\n    //     returns (uint256);\n\n    // function approve(address spender, uint256 value) public returns (bool);\n\n    // function transferFrom(\n    //     address from,\n    //     address to,\n    //     uint256 value\n    // ) public returns (bool);\n\n    event Transfer(address indexed from, address indexed to, uint256 value);\n\n    event Approval(\n        address indexed owner,\n        address indexed spender,\n        uint256 value\n    );\n}\n\ncontract Cryptos is ERC20Interface {\n    string public name = \"Cryptos\";\n    string public symbol = \"CRPT\";\n    uint256 public decimals = 0; //18 is the most used but 0 to keep simple\n    uint256 public override totalSupply; //obrigatorio por isso override\n\n    address public founder;\n    mapping(address => uint256) public balances;\n\n    constructor() {\n        totalSupply = 1000000;\n        founder = msg.sender;\n        balances[founder] = totalSupply;\n    }\n\n    function balanceOf(address tokenOwner)\n        public\n        view\n        override\n        returns (uint256 balance)\n    {}\n\n    function transfer(address to, uint256 tokens)\n        public\n        override\n        returns (bool success)\n    {\n        require(balances[msg.sender] >= tokens, \"not enough tokens\");\n        balances[to] += tokens;\n        balances[msg.sender] -= tokens;\n\n        emit Transfer(msg.sender, to, tokens);\n\n        return true;\n    }\n}\n",
  "sourcePath": "/home/arthur/Desktop/Arthur/Codigos/blockchain/bicho/contracts/Cryptos.sol",
  "compiler": {
    "name": "solc",
    "version": "0.8.0+commit.c7dfd78e.Emscripten.clang"
  },
  "schemaVersion": "3.4.3",
  "updatedAt": "2021-11-08T11:50:03.483Z",
  "devdoc": {
    "kind": "dev",
    "methods": {},
    "version": 1
  },
  "userdoc": {
    "kind": "user",
    "methods": {},
    "version": 1
  }
}